{
  "contractName": "POM",
  "abi": [
    {
      "inputs": [],
      "stateMutability": "nonpayable",
      "type": "constructor"
    },
    {
      "anonymous": false,
      "inputs": [
        {
          "indexed": true,
          "internalType": "address",
          "name": "account",
          "type": "address"
        },
        {
          "indexed": true,
          "internalType": "address",
          "name": "operator",
          "type": "address"
        },
        {
          "indexed": false,
          "internalType": "bool",
          "name": "approved",
          "type": "bool"
        }
      ],
      "name": "ApprovalForAll",
      "type": "event"
    },
    {
      "anonymous": false,
      "inputs": [
        {
          "indexed": true,
          "internalType": "address",
          "name": "previousOwner",
          "type": "address"
        },
        {
          "indexed": true,
          "internalType": "address",
          "name": "newOwner",
          "type": "address"
        }
      ],
      "name": "OwnershipTransferred",
      "type": "event"
    },
    {
      "anonymous": false,
      "inputs": [
        {
          "indexed": false,
          "internalType": "address",
          "name": "account",
          "type": "address"
        }
      ],
      "name": "Paused",
      "type": "event"
    },
    {
      "anonymous": false,
      "inputs": [
        {
          "indexed": true,
          "internalType": "address",
          "name": "operator",
          "type": "address"
        },
        {
          "indexed": true,
          "internalType": "address",
          "name": "from",
          "type": "address"
        },
        {
          "indexed": true,
          "internalType": "address",
          "name": "to",
          "type": "address"
        },
        {
          "indexed": false,
          "internalType": "uint256[]",
          "name": "ids",
          "type": "uint256[]"
        },
        {
          "indexed": false,
          "internalType": "uint256[]",
          "name": "values",
          "type": "uint256[]"
        }
      ],
      "name": "TransferBatch",
      "type": "event"
    },
    {
      "anonymous": false,
      "inputs": [
        {
          "indexed": true,
          "internalType": "address",
          "name": "operator",
          "type": "address"
        },
        {
          "indexed": true,
          "internalType": "address",
          "name": "from",
          "type": "address"
        },
        {
          "indexed": true,
          "internalType": "address",
          "name": "to",
          "type": "address"
        },
        {
          "indexed": false,
          "internalType": "uint256",
          "name": "id",
          "type": "uint256"
        },
        {
          "indexed": false,
          "internalType": "uint256",
          "name": "value",
          "type": "uint256"
        }
      ],
      "name": "TransferSingle",
      "type": "event"
    },
    {
      "anonymous": false,
      "inputs": [
        {
          "indexed": false,
          "internalType": "string",
          "name": "value",
          "type": "string"
        },
        {
          "indexed": true,
          "internalType": "uint256",
          "name": "id",
          "type": "uint256"
        }
      ],
      "name": "URI",
      "type": "event"
    },
    {
      "anonymous": false,
      "inputs": [
        {
          "indexed": false,
          "internalType": "address",
          "name": "account",
          "type": "address"
        }
      ],
      "name": "Unpaused",
      "type": "event"
    },
    {
      "inputs": [
        {
          "internalType": "address",
          "name": "",
          "type": "address"
        }
      ],
      "name": "admins",
      "outputs": [
        {
          "internalType": "bool",
          "name": "",
          "type": "bool"
        }
      ],
      "stateMutability": "view",
      "type": "function",
      "constant": true
    },
    {
      "inputs": [
        {
          "internalType": "address",
          "name": "account",
          "type": "address"
        },
        {
          "internalType": "uint256",
          "name": "id",
          "type": "uint256"
        }
      ],
      "name": "balanceOf",
      "outputs": [
        {
          "internalType": "uint256",
          "name": "",
          "type": "uint256"
        }
      ],
      "stateMutability": "view",
      "type": "function",
      "constant": true
    },
    {
      "inputs": [
        {
          "internalType": "address[]",
          "name": "accounts",
          "type": "address[]"
        },
        {
          "internalType": "uint256[]",
          "name": "ids",
          "type": "uint256[]"
        }
      ],
      "name": "balanceOfBatch",
      "outputs": [
        {
          "internalType": "uint256[]",
          "name": "",
          "type": "uint256[]"
        }
      ],
      "stateMutability": "view",
      "type": "function",
      "constant": true
    },
    {
      "inputs": [
        {
          "internalType": "address",
          "name": "account",
          "type": "address"
        },
        {
          "internalType": "uint256",
          "name": "id",
          "type": "uint256"
        },
        {
          "internalType": "uint256",
          "name": "value",
          "type": "uint256"
        }
      ],
      "name": "burn",
      "outputs": [],
      "stateMutability": "nonpayable",
      "type": "function"
    },
    {
      "inputs": [
        {
          "internalType": "address",
          "name": "account",
          "type": "address"
        },
        {
          "internalType": "uint256[]",
          "name": "ids",
          "type": "uint256[]"
        },
        {
          "internalType": "uint256[]",
          "name": "values",
          "type": "uint256[]"
        }
      ],
      "name": "burnBatch",
      "outputs": [],
      "stateMutability": "nonpayable",
      "type": "function"
    },
    {
      "inputs": [
        {
          "internalType": "uint256",
          "name": "id",
          "type": "uint256"
        }
      ],
      "name": "exists",
      "outputs": [
        {
          "internalType": "bool",
          "name": "",
          "type": "bool"
        }
      ],
      "stateMutability": "view",
      "type": "function",
      "constant": true
    },
    {
      "inputs": [
        {
          "internalType": "address",
          "name": "account",
          "type": "address"
        },
        {
          "internalType": "address",
          "name": "operator",
          "type": "address"
        }
      ],
      "name": "isApprovedForAll",
      "outputs": [
        {
          "internalType": "bool",
          "name": "",
          "type": "bool"
        }
      ],
      "stateMutability": "view",
      "type": "function",
      "constant": true
    },
    {
      "inputs": [],
      "name": "owner",
      "outputs": [
        {
          "internalType": "address",
          "name": "",
          "type": "address"
        }
      ],
      "stateMutability": "view",
      "type": "function",
      "constant": true
    },
    {
      "inputs": [],
      "name": "paused",
      "outputs": [
        {
          "internalType": "bool",
          "name": "",
          "type": "bool"
        }
      ],
      "stateMutability": "view",
      "type": "function",
      "constant": true
    },
    {
      "inputs": [],
      "name": "renounceOwnership",
      "outputs": [],
      "stateMutability": "nonpayable",
      "type": "function"
    },
    {
      "inputs": [
        {
          "internalType": "address",
          "name": "from",
          "type": "address"
        },
        {
          "internalType": "address",
          "name": "to",
          "type": "address"
        },
        {
          "internalType": "uint256[]",
          "name": "ids",
          "type": "uint256[]"
        },
        {
          "internalType": "uint256[]",
          "name": "amounts",
          "type": "uint256[]"
        },
        {
          "internalType": "bytes",
          "name": "data",
          "type": "bytes"
        }
      ],
      "name": "safeBatchTransferFrom",
      "outputs": [],
      "stateMutability": "nonpayable",
      "type": "function"
    },
    {
      "inputs": [
        {
          "internalType": "address",
          "name": "from",
          "type": "address"
        },
        {
          "internalType": "address",
          "name": "to",
          "type": "address"
        },
        {
          "internalType": "uint256",
          "name": "id",
          "type": "uint256"
        },
        {
          "internalType": "uint256",
          "name": "amount",
          "type": "uint256"
        },
        {
          "internalType": "bytes",
          "name": "data",
          "type": "bytes"
        }
      ],
      "name": "safeTransferFrom",
      "outputs": [],
      "stateMutability": "nonpayable",
      "type": "function"
    },
    {
      "inputs": [
        {
          "internalType": "address",
          "name": "operator",
          "type": "address"
        },
        {
          "internalType": "bool",
          "name": "approved",
          "type": "bool"
        }
      ],
      "name": "setApprovalForAll",
      "outputs": [],
      "stateMutability": "nonpayable",
      "type": "function"
    },
    {
      "inputs": [
        {
          "internalType": "bytes4",
          "name": "interfaceId",
          "type": "bytes4"
        }
      ],
      "name": "supportsInterface",
      "outputs": [
        {
          "internalType": "bool",
          "name": "",
          "type": "bool"
        }
      ],
      "stateMutability": "view",
      "type": "function",
      "constant": true
    },
    {
      "inputs": [
        {
          "internalType": "address",
          "name": "newOwner",
          "type": "address"
        }
      ],
      "name": "transferOwnership",
      "outputs": [],
      "stateMutability": "nonpayable",
      "type": "function"
    },
    {
      "inputs": [
        {
          "internalType": "uint256",
          "name": "",
          "type": "uint256"
        }
      ],
      "name": "uri",
      "outputs": [
        {
          "internalType": "string",
          "name": "",
          "type": "string"
        }
      ],
      "stateMutability": "view",
      "type": "function",
      "constant": true
    },
    {
      "inputs": [
        {
          "internalType": "address",
          "name": "newAdmin",
          "type": "address"
        }
      ],
      "name": "addAdmin",
      "outputs": [],
      "stateMutability": "nonpayable",
      "type": "function"
    },
    {
      "inputs": [
        {
          "internalType": "string",
          "name": "newuri",
          "type": "string"
        }
      ],
      "name": "setURI",
      "outputs": [],
      "stateMutability": "nonpayable",
      "type": "function"
    },
    {
      "inputs": [],
      "name": "pause",
      "outputs": [],
      "stateMutability": "nonpayable",
      "type": "function"
    },
    {
      "inputs": [],
      "name": "unpause",
      "outputs": [],
      "stateMutability": "nonpayable",
      "type": "function"
    },
    {
      "inputs": [],
      "name": "tokenCounter",
      "outputs": [
        {
          "internalType": "uint256",
          "name": "",
          "type": "uint256"
        }
      ],
      "stateMutability": "view",
      "type": "function",
      "constant": true
    },
    {
      "inputs": [
        {
          "internalType": "uint256",
          "name": "id",
          "type": "uint256"
        }
      ],
      "name": "totalSupply",
      "outputs": [
        {
          "internalType": "uint256",
          "name": "",
          "type": "uint256"
        }
      ],
      "stateMutability": "view",
      "type": "function",
      "constant": true
    },
    {
      "inputs": [
        {
          "internalType": "address",
          "name": "account",
          "type": "address"
        },
        {
          "internalType": "uint256",
          "name": "id",
          "type": "uint256"
        },
        {
          "internalType": "uint256",
          "name": "amount",
          "type": "uint256"
        },
        {
          "internalType": "bytes",
          "name": "data",
          "type": "bytes"
        }
      ],
      "name": "mint",
      "outputs": [],
      "stateMutability": "nonpayable",
      "type": "function"
    },
    {
      "inputs": [
        {
          "internalType": "address",
          "name": "to",
          "type": "address"
        },
        {
          "internalType": "uint256[]",
          "name": "ids",
          "type": "uint256[]"
        },
        {
          "internalType": "uint256[]",
          "name": "amounts",
          "type": "uint256[]"
        },
        {
          "internalType": "bytes",
          "name": "data",
          "type": "bytes"
        }
      ],
      "name": "mintBatch",
      "outputs": [],
      "stateMutability": "nonpayable",
      "type": "function"
    }
  ],
  "bytecode": "0x608060405234801562000010575f80fd5b5060405180602001604052805f8152506200003181620000ee60201b60201c565b5062000052620000466200010360201b60201c565b6200010a60201b60201c565b5f600360146101000a81548160ff021916908315150217905550600160075f3373ffffffffffffffffffffffffffffffffffffffff1673ffffffffffffffffffffffffffffffffffffffff1681526020019081526020015f205f6101000a81548160ff0219169083151502179055505f60068190555060405180602001604052805f81525060089081620000e7919062000431565b5062000515565b8060029081620000ff919062000431565b5050565b5f33905090565b5f60035f9054906101000a900473ffffffffffffffffffffffffffffffffffffffff1690508160035f6101000a81548173ffffffffffffffffffffffffffffffffffffffff021916908373ffffffffffffffffffffffffffffffffffffffff1602179055508173ffffffffffffffffffffffffffffffffffffffff168173ffffffffffffffffffffffffffffffffffffffff167f8be0079c531659141344cd1fd0a4f28419497f9722a3daafe3b4186f6b6457e060405160405180910390a35050565b5f81519050919050565b7f4e487b71000000000000000000000000000000000000000000000000000000005f52604160045260245ffd5b7f4e487b71000000000000000000000000000000000000000000000000000000005f52602260045260245ffd5b5f60028204905060018216806200024957607f821691505b6020821081036200025f576200025e62000204565b5b50919050565b5f819050815f5260205f209050919050565b5f6020601f8301049050919050565b5f82821b905092915050565b5f60088302620002c37fffffffffffffffffffffffffffffffffffffffffffffffffffffffffffffffff8262000286565b620002cf868362000286565b95508019841693508086168417925050509392505050565b5f819050919050565b5f819050919050565b5f62000319620003136200030d84620002e7565b620002f0565b620002e7565b9050919050565b5f819050919050565b6200033483620002f9565b6200034c620003438262000320565b84845462000292565b825550505050565b5f90565b6200036262000354565b6200036f81848462000329565b505050565b5b8181101562000396576200038a5f8262000358565b60018101905062000375565b5050565b601f821115620003e557620003af8162000265565b620003ba8462000277565b81016020851015620003ca578190505b620003e2620003d98562000277565b83018262000374565b50505b505050565b5f82821c905092915050565b5f620004075f1984600802620003ea565b1980831691505092915050565b5f620004218383620003f6565b9150826002028217905092915050565b6200043c82620001cd565b67ffffffffffffffff811115620004585762000457620001d7565b5b62000464825462000231565b620004718282856200039a565b5f60209050601f831160018114620004a7575f841562000492578287015190505b6200049e858262000414565b8655506200050d565b601f198416620004b78662000265565b5f5b82811015620004e057848901518255600182019150602085019450602081019050620004b9565b86831015620005005784890151620004fc601f891682620003f6565b8355505b6001600288020188555050505b505050505050565b61436680620005235f395ff3fe608060405234801561000f575f80fd5b5060043610610155575f3560e01c806370480275116100c1578063bd85b0391161007a578063bd85b03914610397578063d082e381146103c7578063e985e9c5146103e5578063f242432a14610415578063f2fde38b14610431578063f5298aca1461044d57610155565b80637048027514610311578063715018a61461032d578063731133e9146103375780638456cb59146103535780638da5cb5b1461035d578063a22cb4651461037b57610155565b80633f4ba83a116101135780633f4ba83a1461023d578063429b62e5146102475780634e1273f4146102775780634f558e79146102a75780635c975abb146102d75780636b20c454146102f557610155565b8062fdd58e1461015957806301ffc9a71461018957806302fe5305146101b95780630e89341c146101d55780631f7fdffa146102055780632eb2c2d614610221575b5f80fd5b610173600480360381019061016e919061286d565b610469565b60405161018091906128ba565b60405180910390f35b6101a3600480360381019061019e9190612928565b61052c565b6040516101b0919061296d565b60405180910390f35b6101d360048036038101906101ce9190612ac2565b61060d565b005b6101ef60048036038101906101ea9190612b09565b6106a2565b6040516101fc9190612bae565b60405180910390f35b61021f600480360381019061021a9190612d30565b610734565b005b61023b60048036038101906102369190612de8565b6107ec565b005b61024561088d565b005b610261600480360381019061025c9190612eb3565b61089f565b60405161026e919061296d565b60405180910390f35b610291600480360381019061028c9190612f9e565b6108bc565b60405161029e91906130cb565b60405180910390f35b6102c160048036038101906102bc9190612b09565b6109d3565b6040516102ce919061296d565b60405180910390f35b6102df6109e6565b6040516102ec919061296d565b60405180910390f35b61030f600480360381019061030a91906130eb565b6109fc565b005b61032b60048036038101906103269190612eb3565b610a99565b005b610335610af9565b005b610351600480360381019061034c9190613173565b610b0c565b005b61035b610bf2565b005b610365610c04565b6040516103729190613202565b60405180910390f35b61039560048036038101906103909190613245565b610c2c565b005b6103b160048036038101906103ac9190612b09565b610c42565b6040516103be91906128ba565b60405180910390f35b6103cf610c5c565b6040516103dc91906128ba565b60405180910390f35b6103ff60048036038101906103fa9190613283565b610c65565b60405161040c919061296d565b60405180910390f35b61042f600480360381019061042a91906132c1565b610cf3565b005b61044b60048036038101906104469190612eb3565b610d94565b005b61046760048036038101906104629190613354565b610e16565b005b5f8073ffffffffffffffffffffffffffffffffffffffff168373ffffffffffffffffffffffffffffffffffffffff16036104d8576040517f08c379a00000000000000000000000000000000000000000000000000000000081526004016104cf90613414565b60405180910390fd5b5f808381526020019081526020015f205f8473ffffffffffffffffffffffffffffffffffffffff1673ffffffffffffffffffffffffffffffffffffffff1681526020019081526020015f2054905092915050565b5f7fd9b67a26000000000000000000000000000000000000000000000000000000007bffffffffffffffffffffffffffffffffffffffffffffffffffffffff1916827bffffffffffffffffffffffffffffffffffffffffffffffffffffffff191614806105f657507f0e89341c000000000000000000000000000000000000000000000000000000007bffffffffffffffffffffffffffffffffffffffffffffffffffffffff1916827bffffffffffffffffffffffffffffffffffffffffffffffffffffffff1916145b80610606575061060582610eb3565b5b9050919050565b60075f3373ffffffffffffffffffffffffffffffffffffffff1673ffffffffffffffffffffffffffffffffffffffff1681526020019081526020015f205f9054906101000a900460ff16610696576040517f08c379a000000000000000000000000000000000000000000000000000000000815260040161068d906134a2565b60405180910390fd5b61069f81610f1c565b50565b6060600280546106b1906134ed565b80601f01602080910402602001604051908101604052809291908181526020018280546106dd906134ed565b80156107285780601f106106ff57610100808354040283529160200191610728565b820191905f5260205f20905b81548152906001019060200180831161070b57829003601f168201915b50505050509050919050565b61073c610f2f565b5f5b83518110156107d95761076a84828151811061075d5761075c61351d565b5b60200260200101516109d3565b6107865760065f81548092919061078090613577565b91905055505b60055f85838151811061079c5761079b61351d565b5b602002602001015181526020019081526020015f205f8154809291906107c190613577565b919050555080806107d190613577565b91505061073e565b506107e684848484610fad565b50505050565b6107f46111cd565b73ffffffffffffffffffffffffffffffffffffffff168573ffffffffffffffffffffffffffffffffffffffff16148061083a5750610839856108346111cd565b610c65565b5b610879576040517f08c379a00000000000000000000000000000000000000000000000000000000081526004016108709061362e565b60405180910390fd5b61088685858585856111d4565b5050505050565b610895610f2f565b61089d6114e2565b565b6007602052805f5260405f205f915054906101000a900460ff1681565b60608151835114610902576040517f08c379a00000000000000000000000000000000000000000000000000000000081526004016108f9906136bc565b60405180910390fd5b5f835167ffffffffffffffff81111561091e5761091d61299e565b5b60405190808252806020026020018201604052801561094c5781602001602082028036833780820191505090505b5090505f5b84518110156109c8576109988582815181106109705761096f61351d565b5b602002602001015185838151811061098b5761098a61351d565b5b6020026020010151610469565b8282815181106109ab576109aa61351d565b5b602002602001018181525050806109c190613577565b9050610951565b508091505092915050565b5f806109de83611544565b119050919050565b5f600360149054906101000a900460ff16905090565b610a046111cd565b73ffffffffffffffffffffffffffffffffffffffff168373ffffffffffffffffffffffffffffffffffffffff161480610a4a5750610a4983610a446111cd565b610c65565b5b610a89576040517f08c379a0000000000000000000000000000000000000000000000000000000008152600401610a809061362e565b60405180910390fd5b610a9483838361155e565b505050565b610aa1610f2f565b600160075f8373ffffffffffffffffffffffffffffffffffffffff1673ffffffffffffffffffffffffffffffffffffffff1681526020019081526020015f205f6101000a81548160ff02191690831515021790555050565b610b01610f2f565b610b0a5f611819565b565b60075f3373ffffffffffffffffffffffffffffffffffffffff1673ffffffffffffffffffffffffffffffffffffffff1681526020019081526020015f205f9054906101000a900460ff16610b95576040517f08c379a0000000000000000000000000000000000000000000000000000000008152600401610b8c906134a2565b60405180910390fd5b610b9e836109d3565b610bba5760065f815480929190610bb490613577565b91905055505b60055f8481526020019081526020015f205f815480929190610bdb90613577565b9190505550610bec848484846118dc565b50505050565b610bfa610f2f565b610c02611a7f565b565b5f60035f9054906101000a900473ffffffffffffffffffffffffffffffffffffffff16905090565b610c3e610c376111cd565b8383611ae2565b5050565b5f60055f8381526020019081526020015f20549050919050565b5f600654905090565b5f60015f8473ffffffffffffffffffffffffffffffffffffffff1673ffffffffffffffffffffffffffffffffffffffff1681526020019081526020015f205f8373ffffffffffffffffffffffffffffffffffffffff1673ffffffffffffffffffffffffffffffffffffffff1681526020019081526020015f205f9054906101000a900460ff16905092915050565b610cfb6111cd565b73ffffffffffffffffffffffffffffffffffffffff168573ffffffffffffffffffffffffffffffffffffffff161480610d415750610d4085610d3b6111cd565b610c65565b5b610d80576040517f08c379a0000000000000000000000000000000000000000000000000000000008152600401610d779061362e565b60405180910390fd5b610d8d8585858585611c49565b5050505050565b610d9c610f2f565b5f73ffffffffffffffffffffffffffffffffffffffff168173ffffffffffffffffffffffffffffffffffffffff1603610e0a576040517f08c379a0000000000000000000000000000000000000000000000000000000008152600401610e019061374a565b60405180910390fd5b610e1381611819565b50565b610e1e6111cd565b73ffffffffffffffffffffffffffffffffffffffff168373ffffffffffffffffffffffffffffffffffffffff161480610e645750610e6383610e5e6111cd565b610c65565b5b610ea3576040517f08c379a0000000000000000000000000000000000000000000000000000000008152600401610e9a9061362e565b60405180910390fd5b610eae838383611ed2565b505050565b5f7f01ffc9a7000000000000000000000000000000000000000000000000000000007bffffffffffffffffffffffffffffffffffffffffffffffffffffffff1916827bffffffffffffffffffffffffffffffffffffffffffffffffffffffff1916149050919050565b8060029081610f2b9190613905565b5050565b610f376111cd565b73ffffffffffffffffffffffffffffffffffffffff16610f55610c04565b73ffffffffffffffffffffffffffffffffffffffff1614610fab576040517f08c379a0000000000000000000000000000000000000000000000000000000008152600401610fa290613a1e565b60405180910390fd5b565b5f73ffffffffffffffffffffffffffffffffffffffff168473ffffffffffffffffffffffffffffffffffffffff160361101b576040517f08c379a000000000000000000000000000000000000000000000000000000000815260040161101290613aac565b60405180910390fd5b815183511461105f576040517f08c379a000000000000000000000000000000000000000000000000000000000815260040161105690613b3a565b60405180910390fd5b5f6110686111cd565b9050611078815f87878787612106565b5f5b845181101561112b578381815181106110965761109561351d565b5b60200260200101515f808784815181106110b3576110b261351d565b5b602002602001015181526020019081526020015f205f8873ffffffffffffffffffffffffffffffffffffffff1673ffffffffffffffffffffffffffffffffffffffff1681526020019081526020015f205f8282546111119190613b58565b92505081905550808061112390613577565b91505061107a565b508473ffffffffffffffffffffffffffffffffffffffff165f73ffffffffffffffffffffffffffffffffffffffff168273ffffffffffffffffffffffffffffffffffffffff167f4a39dc06d4c0dbc64b70af90fd698a233a518aa5d07e595d983b8c0526c8f7fb87876040516111a2929190613b8b565b60405180910390a46111b8815f87878787612124565b6111c6815f8787878761212c565b5050505050565b5f33905090565b8151835114611218576040517f08c379a000000000000000000000000000000000000000000000000000000000815260040161120f90613b3a565b60405180910390fd5b5f73ffffffffffffffffffffffffffffffffffffffff168473ffffffffffffffffffffffffffffffffffffffff1603611286576040517f08c379a000000000000000000000000000000000000000000000000000000000815260040161127d90613c30565b60405180910390fd5b5f61128f6111cd565b905061129f818787878787612106565b5f5b845181101561143f575f8582815181106112be576112bd61351d565b5b602002602001015190505f8583815181106112dc576112db61351d565b5b602002602001015190505f805f8481526020019081526020015f205f8b73ffffffffffffffffffffffffffffffffffffffff1673ffffffffffffffffffffffffffffffffffffffff1681526020019081526020015f2054905081811015611378576040517f08c379a000000000000000000000000000000000000000000000000000000000815260040161136f90613cbe565b60405180910390fd5b8181035f808581526020019081526020015f205f8c73ffffffffffffffffffffffffffffffffffffffff1673ffffffffffffffffffffffffffffffffffffffff1681526020019081526020015f2081905550815f808581526020019081526020015f205f8b73ffffffffffffffffffffffffffffffffffffffff1673ffffffffffffffffffffffffffffffffffffffff1681526020019081526020015f205f8282546114249190613b58565b925050819055505050508061143890613577565b90506112a1565b508473ffffffffffffffffffffffffffffffffffffffff168673ffffffffffffffffffffffffffffffffffffffff168273ffffffffffffffffffffffffffffffffffffffff167f4a39dc06d4c0dbc64b70af90fd698a233a518aa5d07e595d983b8c0526c8f7fb87876040516114b6929190613b8b565b60405180910390a46114cc818787878787612124565b6114da81878787878761212c565b505050505050565b6114ea612302565b5f600360146101000a81548160ff0219169083151502179055507f5db9ee0a495bf2e6ff9c91a7834c1ba4fdd244a5e8aa4e537bd38aeae4b073aa61152d6111cd565b60405161153a9190613202565b60405180910390a1565b5f60045f8381526020019081526020015f20549050919050565b5f73ffffffffffffffffffffffffffffffffffffffff168373ffffffffffffffffffffffffffffffffffffffff16036115cc576040517f08c379a00000000000000000000000000000000000000000000000000000000081526004016115c390613d4c565b60405180910390fd5b8051825114611610576040517f08c379a000000000000000000000000000000000000000000000000000000000815260040161160790613b3a565b60405180910390fd5b5f6116196111cd565b905061163781855f868660405180602001604052805f815250612106565b5f5b8351811015611778575f8482815181106116565761165561351d565b5b602002602001015190505f8483815181106116745761167361351d565b5b602002602001015190505f805f8481526020019081526020015f205f8973ffffffffffffffffffffffffffffffffffffffff1673ffffffffffffffffffffffffffffffffffffffff1681526020019081526020015f2054905081811015611710576040517f08c379a000000000000000000000000000000000000000000000000000000000815260040161170790613dda565b60405180910390fd5b8181035f808581526020019081526020015f205f8a73ffffffffffffffffffffffffffffffffffffffff1673ffffffffffffffffffffffffffffffffffffffff1681526020019081526020015f2081905550505050808061177090613577565b915050611639565b505f73ffffffffffffffffffffffffffffffffffffffff168473ffffffffffffffffffffffffffffffffffffffff168273ffffffffffffffffffffffffffffffffffffffff167f4a39dc06d4c0dbc64b70af90fd698a233a518aa5d07e595d983b8c0526c8f7fb86866040516117ef929190613b8b565b60405180910390a461181381855f868660405180602001604052805f815250612124565b50505050565b5f60035f9054906101000a900473ffffffffffffffffffffffffffffffffffffffff1690508160035f6101000a81548173ffffffffffffffffffffffffffffffffffffffff021916908373ffffffffffffffffffffffffffffffffffffffff1602179055508173ffffffffffffffffffffffffffffffffffffffff168173ffffffffffffffffffffffffffffffffffffffff167f8be0079c531659141344cd1fd0a4f28419497f9722a3daafe3b4186f6b6457e060405160405180910390a35050565b5f73ffffffffffffffffffffffffffffffffffffffff168473ffffffffffffffffffffffffffffffffffffffff160361194a576040517f08c379a000000000000000000000000000000000000000000000000000000000815260040161194190613aac565b60405180910390fd5b5f6119536111cd565b90505f61195f8561234b565b90505f61196b8561234b565b905061197b835f89858589612106565b845f808881526020019081526020015f205f8973ffffffffffffffffffffffffffffffffffffffff1673ffffffffffffffffffffffffffffffffffffffff1681526020019081526020015f205f8282546119d59190613b58565b925050819055508673ffffffffffffffffffffffffffffffffffffffff165f73ffffffffffffffffffffffffffffffffffffffff168473ffffffffffffffffffffffffffffffffffffffff167fc3d58168c5ae7397731d063d5bbf3d657854427343f4c083240f7aacaa2d0f628989604051611a52929190613df8565b60405180910390a4611a68835f89858589612124565b611a76835f898989896123c3565b50505050505050565b611a87612599565b6001600360146101000a81548160ff0219169083151502179055507f62e78cea01bee320cd4e420270b5ea74000d11b0c9f74754ebdbfc544b05a258611acb6111cd565b604051611ad89190613202565b60405180910390a1565b8173ffffffffffffffffffffffffffffffffffffffff168373ffffffffffffffffffffffffffffffffffffffff1603611b50576040517f08c379a0000000000000000000000000000000000000000000000000000000008152600401611b4790613e8f565b60405180910390fd5b8060015f8573ffffffffffffffffffffffffffffffffffffffff1673ffffffffffffffffffffffffffffffffffffffff1681526020019081526020015f205f8473ffffffffffffffffffffffffffffffffffffffff1673ffffffffffffffffffffffffffffffffffffffff1681526020019081526020015f205f6101000a81548160ff0219169083151502179055508173ffffffffffffffffffffffffffffffffffffffff168373ffffffffffffffffffffffffffffffffffffffff167f17307eab39ab6107e8899845ad3d59bd9653f200f220920489ca2b5937696c3183604051611c3c919061296d565b60405180910390a3505050565b5f73ffffffffffffffffffffffffffffffffffffffff168473ffffffffffffffffffffffffffffffffffffffff1603611cb7576040517f08c379a0000000000000000000000000000000000000000000000000000000008152600401611cae90613c30565b60405180910390fd5b5f611cc06111cd565b90505f611ccc8561234b565b90505f611cd88561234b565b9050611ce8838989858589612106565b5f805f8881526020019081526020015f205f8a73ffffffffffffffffffffffffffffffffffffffff1673ffffffffffffffffffffffffffffffffffffffff1681526020019081526020015f2054905085811015611d7a576040517f08c379a0000000000000000000000000000000000000000000000000000000008152600401611d7190613cbe565b60405180910390fd5b8581035f808981526020019081526020015f205f8b73ffffffffffffffffffffffffffffffffffffffff1673ffffffffffffffffffffffffffffffffffffffff1681526020019081526020015f2081905550855f808981526020019081526020015f205f8a73ffffffffffffffffffffffffffffffffffffffff1673ffffffffffffffffffffffffffffffffffffffff1681526020019081526020015f205f828254611e269190613b58565b925050819055508773ffffffffffffffffffffffffffffffffffffffff168973ffffffffffffffffffffffffffffffffffffffff168573ffffffffffffffffffffffffffffffffffffffff167fc3d58168c5ae7397731d063d5bbf3d657854427343f4c083240f7aacaa2d0f628a8a604051611ea3929190613df8565b60405180910390a4611eb9848a8a86868a612124565b611ec7848a8a8a8a8a6123c3565b505050505050505050565b5f73ffffffffffffffffffffffffffffffffffffffff168373ffffffffffffffffffffffffffffffffffffffff1603611f40576040517f08c379a0000000000000000000000000000000000000000000000000000000008152600401611f3790613d4c565b60405180910390fd5b5f611f496111cd565b90505f611f558461234b565b90505f611f618461234b565b9050611f7f83875f858560405180602001604052805f815250612106565b5f805f8781526020019081526020015f205f8873ffffffffffffffffffffffffffffffffffffffff1673ffffffffffffffffffffffffffffffffffffffff1681526020019081526020015f2054905084811015612011576040517f08c379a000000000000000000000000000000000000000000000000000000000815260040161200890613dda565b60405180910390fd5b8481035f808881526020019081526020015f205f8973ffffffffffffffffffffffffffffffffffffffff1673ffffffffffffffffffffffffffffffffffffffff1681526020019081526020015f20819055505f73ffffffffffffffffffffffffffffffffffffffff168773ffffffffffffffffffffffffffffffffffffffff168573ffffffffffffffffffffffffffffffffffffffff167fc3d58168c5ae7397731d063d5bbf3d657854427343f4c083240f7aacaa2d0f6289896040516120d9929190613df8565b60405180910390a46120fd84885f868660405180602001604052805f815250612124565b50505050505050565b61210e612599565b61211c8686868686866125e3565b505050505050565b505050505050565b61214b8473ffffffffffffffffffffffffffffffffffffffff166127a5565b156122fa578373ffffffffffffffffffffffffffffffffffffffff1663bc197c8187878686866040518663ffffffff1660e01b8152600401612191959493929190613eff565b6020604051808303815f875af19250505080156121cc57506040513d601f19601f820116820180604052508101906121c99190613f79565b60015b612271576121d8613fb0565b806308c379a00361223457506121ec613fcf565b806121f75750612236565b806040517f08c379a000000000000000000000000000000000000000000000000000000000815260040161222b9190612bae565b60405180910390fd5b505b6040517f08c379a0000000000000000000000000000000000000000000000000000000008152600401612268906140ce565b60405180910390fd5b63bc197c8160e01b7bffffffffffffffffffffffffffffffffffffffffffffffffffffffff1916817bffffffffffffffffffffffffffffffffffffffffffffffffffffffff1916146122f8576040517f08c379a00000000000000000000000000000000000000000000000000000000081526004016122ef9061415c565b60405180910390fd5b505b505050505050565b61230a6109e6565b612349576040517f08c379a0000000000000000000000000000000000000000000000000000000008152600401612340906141c4565b60405180910390fd5b565b60605f600167ffffffffffffffff8111156123695761236861299e565b5b6040519080825280602002602001820160405280156123975781602001602082028036833780820191505090505b50905082815f815181106123ae576123ad61351d565b5b60200260200101818152505080915050919050565b6123e28473ffffffffffffffffffffffffffffffffffffffff166127a5565b15612591578373ffffffffffffffffffffffffffffffffffffffff1663f23a6e6187878686866040518663ffffffff1660e01b81526004016124289594939291906141e2565b6020604051808303815f875af192505050801561246357506040513d601f19601f820116820180604052508101906124609190613f79565b60015b6125085761246f613fb0565b806308c379a0036124cb5750612483613fcf565b8061248e57506124cd565b806040517f08c379a00000000000000000000000000000000000000000000000000000000081526004016124c29190612bae565b60405180910390fd5b505b6040517f08c379a00000000000000000000000000000000000000000000000000000000081526004016124ff906140ce565b60405180910390fd5b63f23a6e6160e01b7bffffffffffffffffffffffffffffffffffffffffffffffffffffffff1916817bffffffffffffffffffffffffffffffffffffffffffffffffffffffff19161461258f576040517f08c379a00000000000000000000000000000000000000000000000000000000081526004016125869061415c565b60405180910390fd5b505b505050505050565b6125a16109e6565b156125e1576040517f08c379a00000000000000000000000000000000000000000000000000000000081526004016125d890614284565b60405180910390fd5b565b6125f18686868686866127c7565b5f73ffffffffffffffffffffffffffffffffffffffff168573ffffffffffffffffffffffffffffffffffffffff160361269d575f5b835181101561269b578281815181106126425761264161351d565b5b602002602001015160045f8684815181106126605761265f61351d565b5b602002602001015181526020019081526020015f205f8282546126839190613b58565b925050819055508061269490613577565b9050612626565b505b5f73ffffffffffffffffffffffffffffffffffffffff168473ffffffffffffffffffffffffffffffffffffffff160361279d575f5b835181101561279b575f8482815181106126ef576126ee61351d565b5b602002602001015190505f84838151811061270d5761270c61351d565b5b602002602001015190505f60045f8481526020019081526020015f205490508181101561276f576040517f08c379a000000000000000000000000000000000000000000000000000000000815260040161276690614312565b60405180910390fd5b81810360045f8581526020019081526020015f20819055505050508061279490613577565b90506126d2565b505b505050505050565b5f808273ffffffffffffffffffffffffffffffffffffffff163b119050919050565b505050505050565b5f604051905090565b5f80fd5b5f80fd5b5f73ffffffffffffffffffffffffffffffffffffffff82169050919050565b5f612809826127e0565b9050919050565b612819816127ff565b8114612823575f80fd5b50565b5f8135905061283481612810565b92915050565b5f819050919050565b61284c8161283a565b8114612856575f80fd5b50565b5f8135905061286781612843565b92915050565b5f8060408385031215612883576128826127d8565b5b5f61289085828601612826565b92505060206128a185828601612859565b9150509250929050565b6128b48161283a565b82525050565b5f6020820190506128cd5f8301846128ab565b92915050565b5f7fffffffff0000000000000000000000000000000000000000000000000000000082169050919050565b612907816128d3565b8114612911575f80fd5b50565b5f81359050612922816128fe565b92915050565b5f6020828403121561293d5761293c6127d8565b5b5f61294a84828501612914565b91505092915050565b5f8115159050919050565b61296781612953565b82525050565b5f6020820190506129805f83018461295e565b92915050565b5f80fd5b5f80fd5b5f601f19601f8301169050919050565b7f4e487b71000000000000000000000000000000000000000000000000000000005f52604160045260245ffd5b6129d48261298e565b810181811067ffffffffffffffff821117156129f3576129f261299e565b5b80604052505050565b5f612a056127cf565b9050612a1182826129cb565b919050565b5f67ffffffffffffffff821115612a3057612a2f61299e565b5b612a398261298e565b9050602081019050919050565b828183375f83830152505050565b5f612a66612a6184612a16565b6129fc565b905082815260208101848484011115612a8257612a8161298a565b5b612a8d848285612a46565b509392505050565b5f82601f830112612aa957612aa8612986565b5b8135612ab9848260208601612a54565b91505092915050565b5f60208284031215612ad757612ad66127d8565b5b5f82013567ffffffffffffffff811115612af457612af36127dc565b5b612b0084828501612a95565b91505092915050565b5f60208284031215612b1e57612b1d6127d8565b5b5f612b2b84828501612859565b91505092915050565b5f81519050919050565b5f82825260208201905092915050565b5f5b83811015612b6b578082015181840152602081019050612b50565b5f8484015250505050565b5f612b8082612b34565b612b8a8185612b3e565b9350612b9a818560208601612b4e565b612ba38161298e565b840191505092915050565b5f6020820190508181035f830152612bc68184612b76565b905092915050565b5f67ffffffffffffffff821115612be857612be761299e565b5b602082029050602081019050919050565b5f80fd5b5f612c0f612c0a84612bce565b6129fc565b90508083825260208201905060208402830185811115612c3257612c31612bf9565b5b835b81811015612c5b5780612c478882612859565b845260208401935050602081019050612c34565b5050509392505050565b5f82601f830112612c7957612c78612986565b5b8135612c89848260208601612bfd565b91505092915050565b5f67ffffffffffffffff821115612cac57612cab61299e565b5b612cb58261298e565b9050602081019050919050565b5f612cd4612ccf84612c92565b6129fc565b905082815260208101848484011115612cf057612cef61298a565b5b612cfb848285612a46565b509392505050565b5f82601f830112612d1757612d16612986565b5b8135612d27848260208601612cc2565b91505092915050565b5f805f8060808587031215612d4857612d476127d8565b5b5f612d5587828801612826565b945050602085013567ffffffffffffffff811115612d7657612d756127dc565b5b612d8287828801612c65565b935050604085013567ffffffffffffffff811115612da357612da26127dc565b5b612daf87828801612c65565b925050606085013567ffffffffffffffff811115612dd057612dcf6127dc565b5b612ddc87828801612d03565b91505092959194509250565b5f805f805f60a08688031215612e0157612e006127d8565b5b5f612e0e88828901612826565b9550506020612e1f88828901612826565b945050604086013567ffffffffffffffff811115612e4057612e3f6127dc565b5b612e4c88828901612c65565b935050606086013567ffffffffffffffff811115612e6d57612e6c6127dc565b5b612e7988828901612c65565b925050608086013567ffffffffffffffff811115612e9a57612e996127dc565b5b612ea688828901612d03565b9150509295509295909350565b5f60208284031215612ec857612ec76127d8565b5b5f612ed584828501612826565b91505092915050565b5f67ffffffffffffffff821115612ef857612ef761299e565b5b602082029050602081019050919050565b5f612f1b612f1684612ede565b6129fc565b90508083825260208201905060208402830185811115612f3e57612f3d612bf9565b5b835b81811015612f675780612f538882612826565b845260208401935050602081019050612f40565b5050509392505050565b5f82601f830112612f8557612f84612986565b5b8135612f95848260208601612f09565b91505092915050565b5f8060408385031215612fb457612fb36127d8565b5b5f83013567ffffffffffffffff811115612fd157612fd06127dc565b5b612fdd85828601612f71565b925050602083013567ffffffffffffffff811115612ffe57612ffd6127dc565b5b61300a85828601612c65565b9150509250929050565b5f81519050919050565b5f82825260208201905092915050565b5f819050602082019050919050565b6130468161283a565b82525050565b5f613057838361303d565b60208301905092915050565b5f602082019050919050565b5f61307982613014565b613083818561301e565b935061308e8361302e565b805f5b838110156130be5781516130a5888261304c565b97506130b083613063565b925050600181019050613091565b5085935050505092915050565b5f6020820190508181035f8301526130e3818461306f565b905092915050565b5f805f60608486031215613102576131016127d8565b5b5f61310f86828701612826565b935050602084013567ffffffffffffffff8111156131305761312f6127dc565b5b61313c86828701612c65565b925050604084013567ffffffffffffffff81111561315d5761315c6127dc565b5b61316986828701612c65565b9150509250925092565b5f805f806080858703121561318b5761318a6127d8565b5b5f61319887828801612826565b94505060206131a987828801612859565b93505060406131ba87828801612859565b925050606085013567ffffffffffffffff8111156131db576131da6127dc565b5b6131e787828801612d03565b91505092959194509250565b6131fc816127ff565b82525050565b5f6020820190506132155f8301846131f3565b92915050565b61322481612953565b811461322e575f80fd5b50565b5f8135905061323f8161321b565b92915050565b5f806040838503121561325b5761325a6127d8565b5b5f61326885828601612826565b925050602061327985828601613231565b9150509250929050565b5f8060408385031215613299576132986127d8565b5b5f6132a685828601612826565b92505060206132b785828601612826565b9150509250929050565b5f805f805f60a086880312156132da576132d96127d8565b5b5f6132e788828901612826565b95505060206132f888828901612826565b945050604061330988828901612859565b935050606061331a88828901612859565b925050608086013567ffffffffffffffff81111561333b5761333a6127dc565b5b61334788828901612d03565b9150509295509295909350565b5f805f6060848603121561336b5761336a6127d8565b5b5f61337886828701612826565b935050602061338986828701612859565b925050604061339a86828701612859565b9150509250925092565b7f455243313135353a2061646472657373207a65726f206973206e6f74206120765f8201527f616c6964206f776e657200000000000000000000000000000000000000000000602082015250565b5f6133fe602a83612b3e565b9150613409826133a4565b604082019050919050565b5f6020820190508181035f83015261342b816133f2565b9050919050565b7f4f6e6c792061646d696e732063616e20706572666f726d2074686973206f70655f8201527f726174696f6e0000000000000000000000000000000000000000000000000000602082015250565b5f61348c602683612b3e565b915061349782613432565b604082019050919050565b5f6020820190508181035f8301526134b981613480565b9050919050565b7f4e487b71000000000000000000000000000000000000000000000000000000005f52602260045260245ffd5b5f600282049050600182168061350457607f821691505b602082108103613517576135166134c0565b5b50919050565b7f4e487b71000000000000000000000000000000000000000000000000000000005f52603260045260245ffd5b7f4e487b71000000000000000000000000000000000000000000000000000000005f52601160045260245ffd5b5f6135818261283a565b91507fffffffffffffffffffffffffffffffffffffffffffffffffffffffffffffffff82036135b3576135b261354a565b5b600182019050919050565b7f455243313135353a2063616c6c6572206973206e6f7420746f6b656e206f776e5f8201527f6572206f7220617070726f766564000000000000000000000000000000000000602082015250565b5f613618602e83612b3e565b9150613623826135be565b604082019050919050565b5f6020820190508181035f8301526136458161360c565b9050919050565b7f455243313135353a206163636f756e747320616e6420696473206c656e6774685f8201527f206d69736d617463680000000000000000000000000000000000000000000000602082015250565b5f6136a6602983612b3e565b91506136b18261364c565b604082019050919050565b5f6020820190508181035f8301526136d38161369a565b9050919050565b7f4f776e61626c653a206e6577206f776e657220697320746865207a65726f20615f8201527f6464726573730000000000000000000000000000000000000000000000000000602082015250565b5f613734602683612b3e565b915061373f826136da565b604082019050919050565b5f6020820190508181035f83015261376181613728565b9050919050565b5f819050815f5260205f209050919050565b5f6020601f8301049050919050565b5f82821b905092915050565b5f600883026137c47fffffffffffffffffffffffffffffffffffffffffffffffffffffffffffffffff82613789565b6137ce8683613789565b95508019841693508086168417925050509392505050565b5f819050919050565b5f6138096138046137ff8461283a565b6137e6565b61283a565b9050919050565b5f819050919050565b613822836137ef565b61383661382e82613810565b848454613795565b825550505050565b5f90565b61384a61383e565b613855818484613819565b505050565b5b818110156138785761386d5f82613842565b60018101905061385b565b5050565b601f8211156138bd5761388e81613768565b6138978461377a565b810160208510156138a6578190505b6138ba6138b28561377a565b83018261385a565b50505b505050565b5f82821c905092915050565b5f6138dd5f19846008026138c2565b1980831691505092915050565b5f6138f583836138ce565b9150826002028217905092915050565b61390e82612b34565b67ffffffffffffffff8111156139275761392661299e565b5b61393182546134ed565b61393c82828561387c565b5f60209050601f83116001811461396d575f841561395b578287015190505b61396585826138ea565b8655506139cc565b601f19841661397b86613768565b5f5b828110156139a25784890151825560018201915060208501945060208101905061397d565b868310156139bf57848901516139bb601f8916826138ce565b8355505b6001600288020188555050505b505050505050565b7f4f776e61626c653a2063616c6c6572206973206e6f7420746865206f776e65725f82015250565b5f613a08602083612b3e565b9150613a13826139d4565b602082019050919050565b5f6020820190508181035f830152613a35816139fc565b9050919050565b7f455243313135353a206d696e7420746f20746865207a65726f206164647265735f8201527f7300000000000000000000000000000000000000000000000000000000000000602082015250565b5f613a96602183612b3e565b9150613aa182613a3c565b604082019050919050565b5f6020820190508181035f830152613ac381613a8a565b9050919050565b7f455243313135353a2069647320616e6420616d6f756e7473206c656e677468205f8201527f6d69736d61746368000000000000000000000000000000000000000000000000602082015250565b5f613b24602883612b3e565b9150613b2f82613aca565b604082019050919050565b5f6020820190508181035f830152613b5181613b18565b9050919050565b5f613b628261283a565b9150613b6d8361283a565b9250828201905080821115613b8557613b8461354a565b5b92915050565b5f6040820190508181035f830152613ba3818561306f565b90508181036020830152613bb7818461306f565b90509392505050565b7f455243313135353a207472616e7366657220746f20746865207a65726f2061645f8201527f6472657373000000000000000000000000000000000000000000000000000000602082015250565b5f613c1a602583612b3e565b9150613c2582613bc0565b604082019050919050565b5f6020820190508181035f830152613c4781613c0e565b9050919050565b7f455243313135353a20696e73756666696369656e742062616c616e636520666f5f8201527f72207472616e7366657200000000000000000000000000000000000000000000602082015250565b5f613ca8602a83612b3e565b9150613cb382613c4e565b604082019050919050565b5f6020820190508181035f830152613cd581613c9c565b9050919050565b7f455243313135353a206275726e2066726f6d20746865207a65726f20616464725f8201527f6573730000000000000000000000000000000000000000000000000000000000602082015250565b5f613d36602383612b3e565b9150613d4182613cdc565b604082019050919050565b5f6020820190508181035f830152613d6381613d2a565b9050919050565b7f455243313135353a206275726e20616d6f756e7420657863656564732062616c5f8201527f616e636500000000000000000000000000000000000000000000000000000000602082015250565b5f613dc4602483612b3e565b9150613dcf82613d6a565b604082019050919050565b5f6020820190508181035f830152613df181613db8565b9050919050565b5f604082019050613e0b5f8301856128ab565b613e1860208301846128ab565b9392505050565b7f455243313135353a2073657474696e6720617070726f76616c207374617475735f8201527f20666f722073656c660000000000000000000000000000000000000000000000602082015250565b5f613e79602983612b3e565b9150613e8482613e1f565b604082019050919050565b5f6020820190508181035f830152613ea681613e6d565b9050919050565b5f81519050919050565b5f82825260208201905092915050565b5f613ed182613ead565b613edb8185613eb7565b9350613eeb818560208601612b4e565b613ef48161298e565b840191505092915050565b5f60a082019050613f125f8301886131f3565b613f1f60208301876131f3565b8181036040830152613f31818661306f565b90508181036060830152613f45818561306f565b90508181036080830152613f598184613ec7565b90509695505050505050565b5f81519050613f73816128fe565b92915050565b5f60208284031215613f8e57613f8d6127d8565b5b5f613f9b84828501613f65565b91505092915050565b5f8160e01c9050919050565b5f60033d1115613fcc5760045f803e613fc95f51613fa4565b90505b90565b5f60443d1061405b57613fe06127cf565b60043d036004823e80513d602482011167ffffffffffffffff8211171561400857505061405b565b808201805167ffffffffffffffff811115614026575050505061405b565b80602083010160043d03850181111561404357505050505061405b565b614052826020018501866129cb565b82955050505050505b90565b7f455243313135353a207472616e7366657220746f206e6f6e2d455243313135355f8201527f526563656976657220696d706c656d656e746572000000000000000000000000602082015250565b5f6140b8603483612b3e565b91506140c38261405e565b604082019050919050565b5f6020820190508181035f8301526140e5816140ac565b9050919050565b7f455243313135353a204552433131353552656365697665722072656a656374655f8201527f6420746f6b656e73000000000000000000000000000000000000000000000000602082015250565b5f614146602883612b3e565b9150614151826140ec565b604082019050919050565b5f6020820190508181035f8301526141738161413a565b9050919050565b7f5061757361626c653a206e6f74207061757365640000000000000000000000005f82015250565b5f6141ae601483612b3e565b91506141b98261417a565b602082019050919050565b5f6020820190508181035f8301526141db816141a2565b9050919050565b5f60a0820190506141f55f8301886131f3565b61420260208301876131f3565b61420f60408301866128ab565b61421c60608301856128ab565b818103608083015261422e8184613ec7565b90509695505050505050565b7f5061757361626c653a20706175736564000000000000000000000000000000005f82015250565b5f61426e601083612b3e565b91506142798261423a565b602082019050919050565b5f6020820190508181035f83015261429b81614262565b9050919050565b7f455243313135353a206275726e20616d6f756e74206578636565647320746f745f8201527f616c537570706c79000000000000000000000000000000000000000000000000602082015250565b5f6142fc602883612b3e565b9150614307826142a2565b604082019050919050565b5f6020820190508181035f830152614329816142f0565b905091905056fea264697066735822122005a45705515648ffe4e0d8c8c53368e454b103a5b531651163f60af1520b99e564736f6c63430008140033",
  "immutableReferences": {},
  "source": "// SPDX-License-Identifier: MIT\npragma solidity ^0.8.9;\n\nimport \"@openzeppelin/contracts/token/ERC1155/ERC1155.sol\";\nimport \"@openzeppelin/contracts/access/Ownable.sol\";\nimport \"@openzeppelin/contracts/security/Pausable.sol\";\nimport \"@openzeppelin/contracts/token/ERC1155/extensions/ERC1155Burnable.sol\";\nimport \"@openzeppelin/contracts/token/ERC1155/extensions/ERC1155Supply.sol\";\n\ncontract POM is ERC1155, Ownable, Pausable, ERC1155Burnable, ERC1155Supply {\n    mapping(uint256 => uint256) private _totalSupply;\n    uint256 private _tokenCounter;\n    mapping(address => bool) public admins;\n    // Used as the URI for all token types by relying on ID substitution, e.g. https://token-cdn-domain/{id}.json\n    string private _uri;\n\n    constructor() ERC1155(\"\") {\n        admins[msg.sender] = true; // Set the deployer as the initial admin\n        _tokenCounter= 0;\n        _uri = \"\";\n    }\n\n    modifier onlyAdmin() {\n        require(admins[msg.sender], \"Only admins can perform this operation\");\n        _;\n    }\n\n    function addAdmin(address newAdmin) public onlyOwner {\n        admins[newAdmin] = true;\n    }\n\n    function setURI(string memory newuri) public onlyAdmin {\n        _setURI(newuri);\n    }\n\n    function pause() public onlyOwner {\n        _pause();\n    }\n\n    function unpause() public onlyOwner {\n        _unpause();\n    }\n\n    function tokenCounter() \n    public \n    view \n    returns (uint256) \n    {\n        return _tokenCounter;\n    }\n    \n    function totalSupply(uint256 id) \n    public \n    view \n    override\n    returns (uint256) \n    {\n        return _totalSupply[id];\n    }\n\n    function mint(address account, uint256 id, uint256 amount, bytes memory data)\n        public\n        onlyAdmin \n    {\n        if (!exists(id)) {\n            _tokenCounter++;\n         }\n        _totalSupply[id]++;\n        _mint(account, id, amount, data);\n    }\n\n    function mintBatch(address to, uint256[] memory ids, uint256[] memory amounts, bytes memory data)\n        public\n        onlyOwner\n    {\n        for (uint j = 0; j < ids.length; j++) {\n            if (!exists(ids[j])) {\n            _tokenCounter++;\n         }\n        _totalSupply[ids[j]]++;\n        }\n        _mintBatch(to, ids, amounts, data);\n    }\n\n    function _beforeTokenTransfer(address operator, address from, address to, uint256[] memory ids, uint256[] memory amounts, bytes memory data)\n        internal\n        whenNotPaused\n        override(ERC1155, ERC1155Supply)\n    {\n        super._beforeTokenTransfer(operator, from, to, ids, amounts, data);\n    }\n}",
  "sourcePath": "D:\\Career\\Web3\\ETHSEOUL2023\\contracts\\POM.sol",
  "compiler": {
    "name": "solc",
    "version": "0.8.20+commit.a1b79de6.Emscripten.clang"
  },
  "schemaVersion": "3.4.14",
  "updatedAt": "2023-06-04T00:25:07.678Z",
  "networkType": "ethereum",
  "devdoc": {
    "events": {
      "ApprovalForAll(address,address,bool)": {
        "details": "Emitted when `account` grants or revokes permission to `operator` to transfer their tokens, according to `approved`."
      },
      "Paused(address)": {
        "details": "Emitted when the pause is triggered by `account`."
      },
      "TransferBatch(address,address,address,uint256[],uint256[])": {
        "details": "Equivalent to multiple {TransferSingle} events, where `operator`, `from` and `to` are the same for all transfers."
      },
      "TransferSingle(address,address,address,uint256,uint256)": {
        "details": "Emitted when `value` tokens of token type `id` are transferred from `from` to `to` by `operator`."
      },
      "URI(string,uint256)": {
        "details": "Emitted when the URI for token type `id` changes to `value`, if it is a non-programmatic URI. If an {URI} event was emitted for `id`, the standard https://eips.ethereum.org/EIPS/eip-1155#metadata-extensions[guarantees] that `value` will equal the value returned by {IERC1155MetadataURI-uri}."
      },
      "Unpaused(address)": {
        "details": "Emitted when the pause is lifted by `account`."
      }
    },
    "kind": "dev",
    "methods": {
      "balanceOf(address,uint256)": {
        "details": "See {IERC1155-balanceOf}. Requirements: - `account` cannot be the zero address."
      },
      "balanceOfBatch(address[],uint256[])": {
        "details": "See {IERC1155-balanceOfBatch}. Requirements: - `accounts` and `ids` must have the same length."
      },
      "exists(uint256)": {
        "details": "Indicates whether any token exist with a given id, or not."
      },
      "isApprovedForAll(address,address)": {
        "details": "See {IERC1155-isApprovedForAll}."
      },
      "owner()": {
        "details": "Returns the address of the current owner."
      },
      "paused()": {
        "details": "Returns true if the contract is paused, and false otherwise."
      },
      "renounceOwnership()": {
        "details": "Leaves the contract without owner. It will not be possible to call `onlyOwner` functions. Can only be called by the current owner. NOTE: Renouncing ownership will leave the contract without an owner, thereby disabling any functionality that is only available to the owner."
      },
      "safeBatchTransferFrom(address,address,uint256[],uint256[],bytes)": {
        "details": "See {IERC1155-safeBatchTransferFrom}."
      },
      "safeTransferFrom(address,address,uint256,uint256,bytes)": {
        "details": "See {IERC1155-safeTransferFrom}."
      },
      "setApprovalForAll(address,bool)": {
        "details": "See {IERC1155-setApprovalForAll}."
      },
      "supportsInterface(bytes4)": {
        "details": "See {IERC165-supportsInterface}."
      },
      "totalSupply(uint256)": {
        "details": "Total amount of tokens in with a given id."
      },
      "transferOwnership(address)": {
        "details": "Transfers ownership of the contract to a new account (`newOwner`). Can only be called by the current owner."
      },
      "uri(uint256)": {
        "details": "See {IERC1155MetadataURI-uri}. This implementation returns the same URI for *all* token types. It relies on the token type ID substitution mechanism https://eips.ethereum.org/EIPS/eip-1155#metadata[defined in the EIP]. Clients calling this function must replace the `\\{id\\}` substring with the actual token type ID."
      }
    },
    "version": 1
  },
  "userdoc": {
    "kind": "user",
    "methods": {},
    "version": 1
  }
}